202103010013792800000000000000000001000000000000000000018000000000027320732811Gritti Agrimensura (Monotribut000000000000000000000000000000000000000000000000000000000000000000000000000000000000000000000000000000000000000000000000PES00010000001 00000000000000020210430
202103010013792800000000000000000002000000000000000000028000000000030714295698ADHOC SA                      000000000374705000000000000000000000000000000000000000000000000000000000000000000000000000000000000000000000000000000000PES00010000002 00000000000000020210430
202103010013792800000000000000000003000000000000000000038000000000030714295698ADHOC SA                      000000000364705000000000000000000000000000000000000000010000000000000000000000000000000000000000000000000000000000000000PES00010000001E00000000000000020210430
202103010033792800000000000000000001000000000000000000018000000000030714295698ADHOC SA                      000000000364705000000000000000000000000000000000000000010000000000000000000000000000000000000000000000000000000000000000PES00010000001E00000000000000020210301
202103010210000200000000000000000001000000000000000000018000000000055000004102Expresso                      000000000321000000000000000000000000000000000000000000321000000000000000000000000000000000000000000000000000000000000000PES00010000001X00000000000000000000000
202103030190000200000000000000000001000000000000000000018000000000027333333339Cerro Castor (Tierra del Fuego000000001075000000000000050000000000000000000000000001025000000000000000000000000000000000000000000000000000000000000000PES00010000001Z00000000000000000000000
202103030190000200000000000000000002000000000000000000028000000000055000004102Expresso                      000000001075000000000000050000000000000000000000000001025000000000000000000000000000000000000000000000000000000000000000PES00010000001X00000000000000000000000
202103050063792800000000000000000001000000000000000000018000000000030684679372Concejo Municipal de Rosario (000000001103600000000000000000000000000000000000000000000000000000000000000000000000000000000000000000000000000000000000PES00010000002 00000000000000020210430
202103130013792800000000000000000004000000000000000000048000000000030714295698ADHOC SA                      000000001183600000000000050000000000000000000000000000010000000000000000000000000000000000000000000000000000000000000000PES00010000003E00000000000000020210430
202103130013792800000000000000000005000000000000000000058000000000030714295698ADHOC SA                      000000000552500000000000000000000000000000000000000000000000000000000000000000000000000000000000000000000000000000000000PES00010000001 00000000000000020210430
202103130013792800000000000000000006000000000000000000068000000000030714295698ADHOC SA                      000000000000542000000000000000000000000000000000000000000000000000000000000000000000000000000000000000000000000000000000PES00010000001 00000000000000020210430
202103130013792800000000000000000007000000000000000000078000000000030714295698ADHOC SA                      000000000004439000000000000000000000000000000000000000000000000000000000000000000000000000000000000000000000000000000000PES00010000001 00000000000000020210430
202103130013792800000000000000000008000000000000000000088000000000030714295698ADHOC SA                      000000000063064000000000000000000000000000000000000000000000000000000000000000000000000000000000000000000000000000000000PES00010000001 00000000000000020210430
202103130013792800000000000000000009000000000000000000098000000000030714295698ADHOC SA                      000000000008821000000000000000000000000000000000000000000000000000000000000000000000000000000000000000000000000000000000PES00010000001 00000000000000020210430
202103130013792800000000000000000010000000000000000000108000000000030714295698ADHOC SA                      000000000399144000000000000000000000000000000000000000000000000000000000000000000000000000000000000000000000000000000000PES00010000003 00000000000000020210430
202103130013792800000000000000000011000000000000000000118000000000030714295698ADHOC SA                      000000000399144000000000000000000000000000000000000000000000000000000000000000000000000000000000000000000000000000000000PES00010000003 00000000000000020210430
202103130063792800000000000000000002000000000000000000029900000000000000000000Consumidor Final Anónimo      000000000077682000000000000000000000000000000000000000000000000000000000000000000000000000000000000000000000000000000000PES00010000001 00000000000000020210430
202103200190000200000000000000000003000000000000000000038000000000055000004102Expresso                      000000000321000000000000000000000000000000000000000000321000000000000000000000000000000000000000000000000000000000000000PES00010000001X00000000000000000000000
202103200190000200000000000000000004000000000000000000048000000000055000004102Expresso                      000000000025000000000000000000000000000000000000000000025000000000000000000000000000000000000000000000000000000000000000PES00010000001X00000000000000000000000
202103220190000200000000000000000005000000000000000000058000000000055000004102Expresso                      000000000321000000000000000000000000000000000000000000321000000000000000000000000000000000000000000000000000000000000000PES00010000001X00000000000000000000000